:100000000C9462000C948A000C948A000C948A0070
:100010000C948A000C948A000C948A000C948A0038
:100020000C948A000C948A000C948A000C948A0028
:100030000C948A000C94B9010C948A000C948A00E8
:100040000C946B040C948A000C948A000C948A0023
:100050000C948A000C948A000C948A000C948A00F8
:100060000C948A000C948A000000000024002700F1
:100070002A0000000000250028002B0000000000DE
:1000800023002600290004040404040404040202DA
:100090000202020203030303030301020408102007
:1000A0004080010204081020010204081020000012
:1000B0000007000201000003040600000000000029
:1000C00000008C0011241FBECFEFD8E0DEBFCDBFF3
:1000D00011E0A0E0B1E0E2E7FEE002C005900D9281
:1000E000AA36B107D9F711E0AAE6B1E001C01D9226
:1000F000A839B107E1F710E0C4ECD0E004C02297C2
:10010000FE010E943307C23CD107C9F70E94DF05F8
:100110000C9437070C940000CF92EF920F938AE66D
:1001200091E06DE04CE02BE00AE059E0E52E38E08C
:10013000C32E0E9432040F91EF90CF9008958091CA
:100140008701909188010197F9F480918301909142
:100150008401019690938401809383018AE691E063
:100160006EE041E00E94450360918301709184013B
:100170008AE691E04AE050E00E94DA068AE691E0E1
:1001800060E071E00E94ED060895809157010E94A1
:100190008B05892B91F48AE691E060E043E00E94B0
:1001A00045038AE691E062E071E00E94ED0681E09D
:1001B00090E09093880180938701809187019091CE
:1001C0008801019709F084C0809155010E948B0538
:1001D0009C018130910549F58091810190918201C6
:1001E000892B19F580917F01909180010196909360
:1001F000800180937F0130938201209381018AE600
:1002000091E06EE040E00E94450360917F017091B3
:1002100080018AE691E04AE050E00E94DA068AE630
:1002200091E060E071E00E94ED06809155010E942E
:100230008B05892B51F48091810190918201019766
:1002400021F410928201109281018091830190919A
:1002500084010A97E9F580917F01909180019C01CA
:10026000220F331F280F391F220F331F30938601AF
:100270002093850110928801109287018AE691E00F
:100280006EE042E00E944503609185017091860115
:100290008AE691E04AE050E00E94DA068AE691E0C0
:1002A00060E071E00E94ED068AE691E060E043E0E4
:1002B0000E9445038AE691E061E171E00E94ED064B
:1002C0001092800110927F0110928401109283019C
:1002D0000895EF92FF920F931F93EAE6EE2EE1E06E
:1002E000FE2EC70164E144E020E00E947C0380917F
:1002F000550160E00E94F8048091570162E00E947D
:10030000F80409E811E0C80140E055E36CE070E052
:100310000E945402C8016FE970E02FEF3FEF4FEFEA
:100320005FEF0E945C02C7010E947403C70160E096
:1003300040E00E944503C70165E271E00E94ED06BE
:10034000C70160E041E00E944503C70164E371E03A
:100350000E94ED06C70160E042E00E944503C7012C
:1003600063E471E00E94ED061F910F91FF90EF9002
:1003700008951F920F920FB60F9211242F933F935F
:100380004F935F936F937F938F939F93AF93BF939D
:10039000EF93FF93E0918D01F0918E010995FF910C
:1003A000EF91BF91AF919F918F917F916F915F91ED
:1003B0004F913F912F910F900FBE0F901F90189566
:1003C000FC01A3E0440F551F661F771FAA95D1F7C4
:1003D000403080E0580781E0680780E0780714F437
:1003E00081E010C033E075956795579547953A952C
:1003F000D1F7403080E0580781E0680780E0780757
:100400001CF482E0828339C023E075956795579587
:1004100047952A95D1F7403080E0580781E068077A
:1004200080E0780714F483E0EDCF92E0759567954E
:10043000579547959A95D1F7403080E0580781E06D
:10044000680780E0780714F484E0DCCF82E07595DB
:100450006795579547958A95D1F7403080E05807C2
:1004600081E0680780E0780714F485E0CBCF85E071
:1004700082834FEF5FEF60E070E08FB78383F89483
:1004800051834083509387004093860083818FBFC0
:1004900080918100887F809381008091810092818A
:1004A000892B8093810008951092800020E1209391
:1004B00081000E94E00108950F931F93CF93DF9373
:1004C000EC018B01121613061406150624F4BA016A
:1004D000A9010E94E0011D830C8381E080936F00DD
:1004E000809181009A81892B80938100DF91CF9147
:1004F0001F910F9108950F931F938C01FC0186812A
:1005000060E00E94370581E090E00E94B304F801AA
:10051000868161E00E94370581E090E00E94B3048B
:10052000F801868160E00E94370584E690E00E9431
:10053000B3041F910F910895CF92DF92EF92FF9233
:100540000F931F93CF93DF93D82EC92E282F392FC7
:10055000C9018C01C0E0D0E0E62EFF24F8018781BC
:1005600061E00E94F804B7010C2E02C075956795F2
:100570000A94E2F76170F80187810E94370521969D
:100580000F5F1F4FC830D10549F78D2D9C2D0E945C
:100590007B02DF91CF911F910F91FF90EF90DF9041
:1005A000CF900895CF92DF92EF92FF920F931F9317
:1005B000CF93DF93D82EC92E282F392FC9018C0154
:1005C000C0E0D0E0E62EFF24F801878161E00E94C0
:1005D000F804B7010C2E02C0759567950A94E2F7EE
:1005E0006170F80187810E94370521960F5F1F4FC8
:1005F000C430D10549F78D2D9C2D0E947B02DF91DF
:10060000CF911F910F91FF90EF90DF90CF900895C1
:100610001F93CF93DF93EC01162F8C81642F0E94E0
:1006200037058D818F3F19F060E00E9437058F8577
:1006300084FF05C0CE01612F0E949C020EC0612F75
:1006400070E084E0759567958A95E1F7CE010E9488
:10065000D202CE01612F0E94D202DF91CF911F9171
:10066000089541E00E94080381E090E0089540E091
:100670000E9408030895FC016089862F8460808BA6
:100680006C60CF010E9437030895DF93CF93CDB7FD
:10069000DEB728970FB6F894DEBF0FBECDBF9C0122
:1006A000FE013196A1E6B1E088E00D900192815003
:1006B000E1F7F9018389481710F0482F4150E42FE2
:1006C000F0E0EE0FFF1FEC0FFD1F8181680F6068E7
:1006D000C9010E94370328960FB6F894DEBF0FBEFB
:1006E000CDBFCF91DF91089561E00E94370380ED87
:1006F00097E00E94B3040895CF93DF93EC0142305A
:1007000018F08F8588608F874B8B1C8A222329F0F5
:10071000413019F48F8584608F8780E593EC0E94C7
:10072000B3048C8160E00E9437058E8160E00E94F6
:1007300037058D818F3F19F060E00E9437056F8586
:1007400064FD1DC0CE0163E00E94D20284E991E104
:100750000E94B304CE0163E00E94D20284E991E1D9
:100760000E94B304CE0163E00E94D20286E990E0C9
:100770000E94B304CE0162E00E94D20216C0606201
:10078000CE010E94370384E991E10E94B3046F8592
:100790006062CE010E94370386E990E00E94B304B4
:1007A0006F856062CE010E9437036F856062CE0163
:1007B0000E94370384E0888BCE010E943B03CE0168
:1007C0000E94740382E0898BCE0166E00E943703A9
:1007D000DF91CF9108956F927F928F92AF92CF92D7
:1007E000EF920F931F93DF93CF93CDB7DEB73C010A
:1007F000162F842FF301448325830683E782C08666
:10080000A18682869D8593879E8594879F859587FF
:100810009889968761E00E94F804F30185818F3FF3
:1008200019F061E00E94F804F301868161E00E9402
:10083000F804112319F0F301178603C080E1F301D6
:100840008787C30160E141E020E00E947C03CF91F3
:10085000DF911F910F91EF90CF90AF908F907F908D
:100860006F9008958F92AF92CF92EF920F931F9354
:10087000CF93DF93DC01362F542F722F102FAE2C25
:100880008C2C13961C921E9212978DE591E0119676
:100890009C938E9300D000D0EDB7FEB73196CDB7C4
:1008A000DEB71982118212821382CD0161E0432FDB
:1008B0002FEF052FE72EC12E0E94EB030F900F9014
:1008C0000F900F90DF91CF911F910F91EF90CF90EC
:1008D000AF908F9008951F920F920FB60F92112430
:1008E0002F933F938F939F93AF93BF9380919301E7
:1008F00090919401A0919501B0919601309197014A
:100900000196A11DB11D232F2D5F2D3720F02D57EE
:100910000196A11DB11D209397018093930190939F
:100920009401A0939501B093960180918F019091CD
:100930009001A0919101B09192010196A11DB11D6C
:1009400080938F0190939001A0939101B0939201B5
:10095000BF91AF919F918F913F912F910F900FBEBB
:100960000F901F901895019739F0880F991F880FE5
:10097000991F02970197F1F70895789484B58260E2
:1009800084BD84B5816084BD85B5826085BD85B533
:10099000816085BDEEE6F0E0808181608083E1E8E2
:1009A000F0E010828081826080838081816080831A
:1009B000E0E8F0E0808181608083E1EBF0E080811D
:1009C00084608083E0EBF0E0808181608083EAE7EF
:1009D000F0E0808184608083808182608083808178
:1009E000816080838081806880831092C100089537
:1009F000CF93DF93482F50E0CA0186569F4FFC01EA
:100A000034914A575F4FFA018491882369F190E04D
:100A1000880F991FFC01E859FF4FA591B491FC0183
:100A2000EE58FF4FC591D491662351F42FB7F89437
:100A30008C91932F909589238C93888189230BC067
:100A4000623061F42FB7F8948C91932F909589239D
:100A50008C938881832B88832FBF06C09FB7F8941F
:100A60008C91832B8C939FBFDF91CF910895482F5A
:100A700050E0CA0182559F4FFC012491CA0186565D
:100A80009F4FFC0194914A575F4FFA0134913323F1
:100A900009F440C0222351F1233071F0243028F4AE
:100AA0002130A1F0223011F514C02630B1F02730EA
:100AB000C1F02430D9F404C0809180008F7703C046
:100AC000809180008F7D8093800010C084B58F77E7
:100AD00002C084B58F7D84BD09C08091B0008F773E
:100AE00003C08091B0008F7D8093B000E32FF0E0D1
:100AF000EE0FFF1FEE58FF4FA591B4912FB7F8945A
:100B0000662321F48C919095892302C08C91892BC6
:100B10008C932FBF0895682F70E0CB0182559F4FB3
:100B2000FC012491CB0186569F4FFC0144916A57EA
:100B30007F4FFB019491992319F420E030E03CC0F1
:100B4000222351F1233071F0243028F42130A1F018
:100B5000223011F514C02630B1F02730C1F0243016
:100B6000D9F404C0809180008F7703C08091800009
:100B70008F7D8093800010C084B58F7702C084B5CC
:100B80008F7D84BD09C08091B0008F7703C08091B4
:100B9000B0008F7D8093B000892F90E0880F991F5F
:100BA00084589F4FFC01A591B4918C9120E030E0D6
:100BB000842311F021E030E0C90108950895CF9316
:100BC000DF930E94BD040E94DE050E946901C0E01F
:100BD000D0E00E94C5002097E1F30E940000F9CF09
:100BE000CF92DF92EF92FF920F931F93CF93DF93F9
:100BF0007C016B018A01C0E0D0E00FC0D6016D918D
:100C00006D01D701ED91FC910190F081E02DC701BC
:100C10000995C80FD91F015010400115110571F732
:100C2000CE01DF91CF911F910F91FF90EF90DF9058
:100C3000CF900895CF93DF93EC016115710519F4FE
:100C400020E030E00FC0DB010D900020E9F71197A4
:100C5000A61BB70BE881F9810280F381E02DAD017D
:100C600009959C01C901DF91CF9108954F925F9240
:100C70007F928F929F92AF92BF92CF92DF92EF922C
:100C8000FF920F931F93DF93CF93CDB7DEB7A1975A
:100C90000FB6F894DEBF0FBECDBF2C01742ECB0172
:100CA000223008F42AE019A231E2C32ED12CCC0E56
:100CB000DD1E822E9924AA24BB24672D752FA50141
:100CC00094010E940F0779018A01C801B701A501AB
:100CD00094010E94F006472D461B0894C108D108D4
:100CE0004A3014F4405D01C0495CF6014083E114D0
:100CF000F1040105110521F07E2C5F2DC801DDCF27
:100D0000C201B6010E941A06A1960FB6F894DEBF82
:100D10000FBECDBFCF91DF911F910F91FF90EF904C
:100D2000DF90CF90BF90AF909F908F907F905F901B
:100D30004F900895CF92DF92EF92FF920F931F93FF
:100D4000CF93DF93EC016A017B012115310541F45A
:100D5000E881F9810190F081E02D642F09951FC091
:100D60002A303105D1F477FF17C0E881F98101906D
:100D7000F081E02D6DE209958C0144275527BA01D9
:100D80004C195D096E097F09CE012AE00E943606E2
:100D90009801280F391F04C02AE00E9436069C01E2
:100DA000C901DF91CF911F910F91FF90EF90DF90DC
:100DB000CF900895EF92FF920F931F937B019A01BA
:100DC0000027F7FC0095102FB801A7010E949A0692
:100DD0001F910F91FF90EF9008950E941A060895B9
:100DE000629FD001739FF001829FE00DF11D649F0F
:100DF000E00DF11D929FF00D839FF00D749FF00D9B
:100E0000659FF00D9927729FB00DE11DF91F639F3B
:100E1000B00DE11DF91FBD01CF0111240895A1E21C
:100E20001A2EAA1BBB1BFD010DC0AA1FBB1FEE1F64
:100E3000FF1FA217B307E407F50720F0A21BB30BAF
:100E4000E40BF50B661F771F881F991F1A9469F72B
:100E500060957095809590959B01AC01BD01CF0187
:100E60000895EE0FFF1F0590F491E02D0994F8947A
:020E7000FFCFB2
:100E72002000484220436F756E74696E67202E2EE3
:100E820000507265737320427574746F6E206167CF
:100E920061696E2E0043757272656E74204842203D
:100EA200203A200054696D6520696E2053656320E5
:100EB2003A2000484220706572204D696E20203A27
:100EC20020302E300004000200000000003103F048
:0A0ED2000500004000140054000069
:00000001FF
